{
  "_format": "hh-sol-artifact-1",
  "contractName": "Faucet",
  "sourceName": "contracts/Faucet.sol",
  "abi": [
    {
      "inputs": [],
      "stateMutability": "nonpayable",
      "type": "constructor"
    },
    {
      "anonymous": false,
      "inputs": [
        {
          "indexed": true,
          "internalType": "address",
          "name": "previousOwner",
          "type": "address"
        },
        {
          "indexed": true,
          "internalType": "address",
          "name": "newOwner",
          "type": "address"
        }
      ],
      "name": "OwnershipTransferred",
      "type": "event"
    },
    {
      "inputs": [],
      "name": "amount",
      "outputs": [
        {
          "internalType": "uint256",
          "name": "",
          "type": "uint256"
        }
      ],
      "stateMutability": "view",
      "type": "function"
    },
    {
      "inputs": [],
      "name": "eth_addr",
      "outputs": [
        {
          "internalType": "address",
          "name": "",
          "type": "address"
        }
      ],
      "stateMutability": "view",
      "type": "function"
    },
    {
      "inputs": [],
      "name": "limit",
      "outputs": [
        {
          "internalType": "uint256",
          "name": "",
          "type": "uint256"
        }
      ],
      "stateMutability": "view",
      "type": "function"
    },
    {
      "inputs": [
        {
          "internalType": "address",
          "name": "",
          "type": "address"
        }
      ],
      "name": "limits",
      "outputs": [
        {
          "internalType": "uint256",
          "name": "",
          "type": "uint256"
        }
      ],
      "stateMutability": "view",
      "type": "function"
    },
    {
      "inputs": [],
      "name": "owner",
      "outputs": [
        {
          "internalType": "address",
          "name": "",
          "type": "address"
        }
      ],
      "stateMutability": "view",
      "type": "function"
    },
    {
      "inputs": [],
      "name": "renounceOwnership",
      "outputs": [],
      "stateMutability": "nonpayable",
      "type": "function"
    },
    {
      "inputs": [
        {
          "internalType": "address",
          "name": "_recipient",
          "type": "address"
        }
      ],
      "name": "send",
      "outputs": [],
      "stateMutability": "nonpayable",
      "type": "function"
    },
    {
      "inputs": [
        {
          "internalType": "uint256",
          "name": "_amount",
          "type": "uint256"
        }
      ],
      "name": "setAmount",
      "outputs": [],
      "stateMutability": "nonpayable",
      "type": "function"
    },
    {
      "inputs": [
        {
          "internalType": "uint256",
          "name": "_limit",
          "type": "uint256"
        }
      ],
      "name": "setLimit",
      "outputs": [],
      "stateMutability": "nonpayable",
      "type": "function"
    },
    {
      "inputs": [
        {
          "internalType": "address",
          "name": "newOwner",
          "type": "address"
        }
      ],
      "name": "transferOwnership",
      "outputs": [],
      "stateMutability": "nonpayable",
      "type": "function"
    }
  ],
  "bytecode": "0x60806040523480156200001c576000806200001962000190565b50505b5060006200002f6200017e60201b60201c565b9050806000806101000a816200004462000200565b8173ffffffffffffffffffffffffffffffffffffffff021916908373ffffffffffffffffffffffffffffffffffffffff160217906200008262000265565b5050508073ffffffffffffffffffffffffffffffffffffffff16600073ffffffffffffffffffffffffffffffffffffffff167f8be0079c531659141344cd1fd0a4f28419497f9722a3daafe3b4186f6b6457e060405160405180910390a350662386f26fc1000060038190620000f762000265565b50505062015180600281906200010c62000265565b505050734200000000000000000000000000000000000006600460006101000a816200013762000200565b8173ffffffffffffffffffffffffffffffffffffffff021916908373ffffffffffffffffffffffffffffffffffffffff160217906200017562000265565b5050506200032b565b60005a6200018b620002cc565b905090565b632a2a7adb598160e01b8152600481016020815285602082015260005b86811015620001cd578086015181604084010152602081019050620001ad565b506020828760640184336000905af158600e01573d6000803e3d6000fd5b3d6001141558600a015760016000f35b505050565b6303daa959598160e01b8152836004820152602081602483336000905af158600e01573d6000803e3d6000fd5b3d6001141558600a015760016000f35b8051935060005b6040811015620002605760008183015260208101905062000244565b505050565b6322bd64c0598160e01b8152836004820152846024820152600081604483336000905af158600e01573d6000803e3d6000fd5b3d6001141558600a015760016000f35b60005b6040811015620002c757600081830152602081019050620002ab565b505050565b6373509064598160e01b8152602081600483336000905af158600e01573d6000803e3d6000fd5b3d6001141558600a015760016000f35b8051935060005b604081101562000326576000818301526020810190506200030a565b505050565b610e6d806200033b6000396000f3fe608060405234801561001957600080610016610af3565b50505b50600436106100a75760003560e01c80638da5cb5b1161006f5780638da5cb5b146101db5780639f645d6f1461020f578063a4d66daf14610243578063aa8c217c14610261578063f2fde38b1461027f576100a7565b806320d7bec1146100b5578063271f88b41461011657806327ea6f2b1461014d5780633e58c58c14610184578063715018a6146101d1575b6000806100b2610af3565b50505b610100600480360360208110156100d4576000806100d1610af3565b50505b81019080803573ffffffffffffffffffffffffffffffffffffffff1690602001909291905050506102cc565b6040518082815260200191505060405180910390f35b61014b6004803603602081101561013557600080610132610af3565b50505b81019080803590602001909291905050506102eb565b005b6101826004803603602081101561016c57600080610169610af3565b50505b81019080803590602001909291905050506103b6565b005b6101cf600480360360208110156101a3576000806101a0610af3565b50505b81019080803573ffffffffffffffffffffffffffffffffffffffff169060200190929190505050610481565b005b6101d96106c4565b005b6101e3610851565b604051808273ffffffffffffffffffffffffffffffffffffffff16815260200191505060405180910390f35b610217610881565b604051808273ffffffffffffffffffffffffffffffffffffffff16815260200191505060405180910390f35b61024b6108ae565b6040518082815260200191505060405180910390f35b6102696108bb565b6040518082815260200191505060405180910390f35b6102ca6004803603602081101561029e5760008061029b610af3565b50505b81019080803573ffffffffffffffffffffffffffffffffffffffff1690602001909291905050506108c8565b005b60016020528060005260406000206000915090506102e8610b61565b81565b6102f3610ae3565b73ffffffffffffffffffffffffffffffffffffffff16610311610851565b73ffffffffffffffffffffffffffffffffffffffff16146103a3576040517f08c379a00000000000000000000000000000000000000000000000000000000081526004018080602001828103825260208152602001807f4f776e61626c653a2063616c6c6572206973206e6f7420746865206f776e6572815250602001915050604051809103906103a0610af3565b50505b80600381906103b0610bc4565b50505050565b6103be610ae3565b73ffffffffffffffffffffffffffffffffffffffff166103dc610851565b73ffffffffffffffffffffffffffffffffffffffff161461046e576040517f08c379a00000000000000000000000000000000000000000000000000000000081526004018080602001828103825260208152602001807f4f776e61626c653a2063616c6c6572206973206e6f7420746865206f776e65728152506020019150506040518091039061046b610af3565b50505b806002819061047b610bc4565b50505050565b5a61048a610c29565b600160008373ffffffffffffffffffffffffffffffffffffffff1673ffffffffffffffffffffffffffffffffffffffff1681526020019081526020016000206104d1610b61565b1061054d576040517f08c379a000000000000000000000000000000000000000000000000000000000815260040180806020018281038252600e8152602001807f686974206c696d697420726174650000000000000000000000000000000000008152506020019150506040518091039061054a610af3565b50505b6000600460009061055c610b61565b906101000a900473ffffffffffffffffffffffffffffffffffffffff1690508073ffffffffffffffffffffffffffffffffffffffff1663a9059cbb8360036105a2610b61565b6040518363ffffffff1660e01b8152600401808373ffffffffffffffffffffffffffffffffffffffff16815260200182815260200192505050602060405180830381600087806105f0610c86565b15801561060557600080610602610af3565b50505b505a61060f610ce9565b50505050505015801561062f573d6000803e3d600061062c610af3565b50505b505050506040513d602081101561064e5760008061064b610af3565b50505b810190808051906020019092919050505050600261066a610b61565b5a610673610c29565b01600160008473ffffffffffffffffffffffffffffffffffffffff1673ffffffffffffffffffffffffffffffffffffffff16815260200190815260200160002081906106bd610bc4565b5050505050565b6106cc610ae3565b73ffffffffffffffffffffffffffffffffffffffff166106ea610851565b73ffffffffffffffffffffffffffffffffffffffff161461077c576040517f08c379a00000000000000000000000000000000000000000000000000000000081526004018080602001828103825260208152602001807f4f776e61626c653a2063616c6c6572206973206e6f7420746865206f776e657281525060200191505060405180910390610779610af3565b50505b600073ffffffffffffffffffffffffffffffffffffffff1660008061079f610b61565b906101000a900473ffffffffffffffffffffffffffffffffffffffff1673ffffffffffffffffffffffffffffffffffffffff167f8be0079c531659141344cd1fd0a4f28419497f9722a3daafe3b4186f6b6457e060405160405180910390a360008060006101000a81610810610b61565b8173ffffffffffffffffffffffffffffffffffffffff021916908373ffffffffffffffffffffffffffffffffffffffff1602179061084c610bc4565b505050565b60008060009061085f610b61565b906101000a900473ffffffffffffffffffffffffffffffffffffffff16905090565b600460009061088e610b61565b906101000a900473ffffffffffffffffffffffffffffffffffffffff1681565b60026108b8610b61565b81565b60036108c5610b61565b81565b6108d0610ae3565b73ffffffffffffffffffffffffffffffffffffffff166108ee610851565b73ffffffffffffffffffffffffffffffffffffffff1614610980576040517f08c379a00000000000000000000000000000000000000000000000000000000081526004018080602001828103825260208152602001807f4f776e61626c653a2063616c6c6572206973206e6f7420746865206f776e65728152506020019150506040518091039061097d610af3565b50505b600073ffffffffffffffffffffffffffffffffffffffff168173ffffffffffffffffffffffffffffffffffffffff161415610a0f576040517f08c379a0000000000000000000000000000000000000000000000000000000008152600401808060200182810382526026815260200180610e476026913960400191505060405180910390610a0c610af3565b50505b8073ffffffffffffffffffffffffffffffffffffffff16600080610a31610b61565b906101000a900473ffffffffffffffffffffffffffffffffffffffff1673ffffffffffffffffffffffffffffffffffffffff167f8be0079c531659141344cd1fd0a4f28419497f9722a3daafe3b4186f6b6457e060405160405180910390a3806000806101000a81610aa1610b61565b8173ffffffffffffffffffffffffffffffffffffffff021916908373ffffffffffffffffffffffffffffffffffffffff16021790610add610bc4565b50505050565b60005a610aee610de9565b905090565b632a2a7adb598160e01b8152600481016020815285602082015260005b86811015610b2e578086015181604084010152602081019050610b10565b506020828760640184336000905af158600e01573d6000803e3d6000fd5b3d6001141558600a015760016000f35b505050565b6303daa959598160e01b8152836004820152602081602483336000905af158600e01573d6000803e3d6000fd5b3d6001141558600a015760016000f35b8051935060005b6040811015610bbf57600081830152602081019050610ba5565b505050565b6322bd64c0598160e01b8152836004820152846024820152600081604483336000905af158600e01573d6000803e3d6000fd5b3d6001141558600a015760016000f35b60005b6040811015610c2457600081830152602081019050610c0a565b505050565b63bdbf8c36598160e01b8152602081600483336000905af158600e01573d6000803e3d6000fd5b3d6001141558600a015760016000f35b8051935060005b6040811015610c8157600081830152602081019050610c67565b505050565b638435035b598160e01b8152836004820152602081602483336000905af158600e01573d6000803e3d6000fd5b3d6001141558600a015760016000f35b8051935060005b6040811015610ce457600081830152602081019050610cca565b505050565b6385979f76598160e01b8152610d28565b600081905081831115610d0b578290505b92915050565b600081905081831015610d22578290505b92915050565b836004820152846024820152606060448201528760648201526084810160005b89811015610d63578089015181830152602081019050610d48565b506060828a60a40184336000905af158600e01573d6000803e3d6000fd5b3d6001141558600a015760016000f35b815160408301513d6000853e8c8c82606087013350600060045af15059610db88e3d610d11565b8d01610dc48187610cfa565b5b82811015610ddc5760008152602081019050610dc5565b50839e5050505050505050565b6373509064598160e01b8152602081600483336000905af158600e01573d6000803e3d6000fd5b3d6001141558600a015760016000f35b8051935060005b6040811015610e4157600081830152602081019050610e27565b50505056fe4f776e61626c653a206e6577206f776e657220697320746865207a65726f2061646472657373",
  "linkReferences": {},
  "deployedLinkReferences": {}
}